:100000000C9487000C94B1000C94B1000C94B100D6
:100010000C948D0B0C948D0B0C948D0B0C948D0B00
:100020000C94B1000C94B1000C94B1000C94B1008C
:100030000C94B1000C94BE090C94B1000C94B10066
:100040000C94B1000C94B1000C948F0C0C94B10082
:100050000C94B1000C94B1000C94B1000C94B1005C
:100060000C94B1000C94B1000C94B1000C94B1004C
:100070000C94B1000C94B1000C94B1000C94B1003C
:100080000C94EC090C94B1000C94B1000000000237
:1000900003000A0B0000000005040908000000002E
:1000A0000000000000000000000000000102040841
:1000B0001020408001020408102040800102040842
:1000C0001020408001020408102040800202020239
:1000D00002020202040404040404040403030303EC
:1000E00003030303010101010101010100002000DC
:1000F00023002600290000002200250028002B00F4
:1001000000002100240027002A00B304E604112483
:100110001FBECFEFD0E4DEBFCDBF12E0A0E0B1E064
:10012000E2ECF4E200E00BBF02C007900D92A430B5
:10013000B107D9F723E0A4E0B2E001C01D92A831D5
:10014000B207E1F710E0C6E8D0E004C02197FE0155
:100150000E94FC0FC538D107C9F70E94CC0F0C9440
:1001600054120C94000020E042E060E189E292E049
:100170000E94420862E082E00E94700E62E089E123
:100180000E94700E62E08AE10E94700E62E085E1DA
:100190000E94700E62E08FE10E94700E62E083E1C7
:1001A0000E94700E61E084E00E94700E61E08BE0BE
:1001B0000E94700E61E08EE00E94700E61E089E0A6
:1001C0000E94700E61E086E10E94700E61E087E19E
:1001D0000E94700E62E089E00E94700E61E08FE084
:1001E0000E94700E61E084E00E94AC0E61E089E044
:1001F0000E94AC0E60E08FE00E94AC0E62E170E005
:1002000086E292E00E94C30A64E170E083E292E039
:100210000C94C30A89E292E00E94220866E970E029
:1002200080E090E00E94240D82E00E94DA0E892B8B
:10023000D9F389E10E94DA0E892BB1F38AE10E9499
:10024000DA0E892B89F385E10E94DA0E892B61F39E
:100250008FE10E94DA0E892B39F383E10E94DA0ED6
:10026000892B11F30895CF93DF93EB0197FF1AC009
:1002700066277727681B790B8CE00E94C00D60E031
:100280008BE00E94AC0ED7FF16C0662777276C1B49
:100290007D0B8DE00E94C00D60E08EE0DF91CF917C
:1002A0000C94AC0E6FEF70E0681B790B8CE00E9431
:1002B000C00D61E0E5CF6FEF70E06C1B7D0B8DE052
:1002C0000E94C00D61E0E9CF70E060E08DE00E9427
:1002D000C00D70E060E08CE00E94C00D60E08BE03B
:1002E0000E94AC0E60E08EE00E94AC0E65E070E013
:1002F00080E090E00E94240D61E089E00C94AC0E57
:10030000CF93C62F682F86E10E94AC0E6C2F87E139
:100310000E94AC0E88EC90E0CF910C945D0D2F9272
:100320003F924F925F926F927F928F929F92AF9285
:10033000BF92CF92DF92EF92FF920F931F93CF93D2
:10034000DF93CDB7DEB7C255D1090FB6F894DEBF43
:100350000FBECDBF80E1E3E1F1E0DE01AF5BBF4F57
:1003600001900D928A95E1F70E940A018E010F5DBE
:100370001F4FCE0101967C01805C9F4FF701480121
:100380002FEF33E0D4012D933D934D011192119243
:10039000A817B907B9F7D12CC12CF701709663964D
:1003A000FFAFEEAF639760E081E00E9480015E01E5
:1003B000F1E4AF0EB11C150188E0280E311C3801A4
:1003C0002701D5018D915D010E94A20DF2012191BD
:1003D00031912F01281739071CF4329791838083BC
:1003E000D3012D913D913D018217930724F4FD0126
:1003F000329791838083A214B30419F761E070E00F
:1004000080E090E00E94240D61E080E00E94800185
:1004100051E4452E512C4C0E5D1EB8E04B0E511C84
:100420003E01E1E36E0E711C5701D2018D912D0149
:100430000E94A20DF501208931892817390714F48B
:10044000918B808BD3012D913D913D0182179307B4
:1004500024F4FD01329791838083B2E0AB0EB11C8E
:100460006396EEADFFAD6397EA15FB05F1F661E02B
:1004700070E080E090E00E94240D60E080E00E9447
:10048000800140E060E089E292E00E9429086DE48A
:1004900071E089E292E00E943F0F41E060E089E272
:1004A00092E00E94290866E571E089E292E00E94EC
:1004B0003F0FFFEFCF1ADF0A40E068E088ECC81674
:1004C000D1040CF05EC089E292E00E94290867E640
:1004D00071E089E292E00E943F0F82E00E94DA0E12
:1004E000892B09F46DC085E10E94DA0E892B09F091
:1004F0005ACF0E940A0140E060E089E292E00E9447
:10050000290863E771E089E292E00E943F0F64EFFF
:1005100071E080E090E00E94240D8DE4E82E82E0FE
:10052000F82E10E000E0F701D1907F01C8010E9491
:100530003E12D81621F06D2DC8010E9446120F5FA1
:100540001F4F0032110579F789E292E0CE5ADF4F52
:100550000FB6F894DEBF0FBECDBFDF91CF911F91D4
:100560000F91FF90EF90DF90CF90BF90AF909F9052
:100570008F907F906F905F904F903F902F900C9452
:10058000220891E9C91691E0D9069CF089E292E02F
:100590000E9429086BE671E089E292E00E943F0F19
:1005A000A9E5CA16A2E0DA060CF497CFD12CC12C2B
:1005B00094CF89E292E00E9429086FE671E0ECCFC7
:1005C0000E940A0140E060E089E292E00E9429086E
:1005D00064E871E089E292E00E943F0F64EF71E00D
:1005E00080E090E00E94240DEDE4F2E0D8012D912E
:1005F0003D918D01D7018D919D917D01821B930BC2
:1006000097FD019695958795820F931F81939193FE
:100610000815190559F781CF89E292E00E94220856
:1006200040E060E089E292E00E94290865E971E01B
:1006300089E292E00E943F0F41E060E089E292E0AF
:100640000E94290866EA71E089E292E00E943F0F69
:1006500064EF71E080E090E00E94240D89E292E076
:100660000C94220880914B0290914C0280369105A7
:1006700009F400C10CF098C08C30910509F405C153
:100680000CF069C08430910509F475C00CF055C0B8
:100690008230910509F40BC10CF0FAC0019709F4FE
:1006A000FAC0209147023091480280914502909112
:1006B0004602A901481B590BCA0150934A024093B4
:1006C0004902E0911001F0911101609106017091D1
:1006D0000701A0910E01B0910F018A9FA0018B9F8D
:1006E000500D9A9F500D11242E9FC0012F9F900DE9
:1006F0003E9F900D1124860F971F840F951F909396
:100700004402809343022E9FD0012F9FB00D3E9F45
:10071000B00D11246A1B7B0B641B750B7093420296
:10072000609341020E9433018091470290914802F8
:10073000909346028093450208958730910509F40D
:10074000B6C08830910509F4AFC0069709F0A9CF6B
:1007500085E190E07EC08C31910509F4A5C074F468
:100760008031910509F49DC08831910509F48AC052
:100770000E9709F096CF81E190E06BC08033910530
:1007800009F47DC034F4809709F08BCF81E090E0CC
:1007900060C08833910509F484C08034910509F064
:1007A00080CF8FEF9FEF55C0811522E0920709F4AB
:1007B00040C014F5803E9105A1F36CF4803891059A
:1007C00009F46CC0803C910509F451C08037910553
:1007D00009F067CFDBCF803851E0950709F444C0BA
:1007E000803C21E0920709F459C08115914009F03D
:1007F00058CF85EF9FEF2DC0811556E0950789F101
:100800007CF4803843E09407A1F3811554E0950708
:10081000D9F08115934009F044CF81EF9FEF19C0C3
:10082000811548E0940799F03CF48115974009F050
:1008300038CF8FEE9FEF0DC081154CE0940771F01B
:1008400081159E4009F02DCF87EE9FEF02C081EE0B
:100850009FEF909348028093470223CF85EE9FEF4E
:10086000F8CF8BEE9FEFF5CF89EF9FEFF2CF8DEFB3
:100870009FEFEFCF109248021092470212CF83E011
:1008800090E0E7CF87E090E0E4CF8FE090E0E1CF29
:100890008BE190E0DECF8FE190E0DBCF8BEF9FEF3D
:1008A000D8CF85E090E0D5CF8BE090E0D2CF89E142
:1008B00090E0CFCFEF92FF920F931F93CF93DF93F0
:1008C0008C017B01EA01209701F161E084E00E9444
:1008D000AC0E101611061CF41E141F0464F06CE913
:1008E0007FEF8CE99FEF0E94330164E170E080E0CC
:1008F00090E00E94240DB701C8010E943301BE019F
:10090000DD0F880B990B0E94240D61E089E00E94A5
:10091000AC0E61E070E080E090E00E94240D60E0A9
:1009200089E0DF91CF911F910F91FF90EF900C9490
:10093000AC0E0F931F93CF93DF930E94B3000DE48F
:1009400012E0D0E0C0E0CE010E943E12F801819397
:100950008F012196C032D105B1F7DF91CF911F9160
:100960000F910C940C03CF92EF920F9363E871E018
:1009700089E792E00E94B60F67EB71E083E792E0AF
:100980000E94B60F65EC71E08DE692E00E94B60F12
:1009900083E0C82E97E0E92E06E025E041E060E024
:1009A00089E292E00E94DE0886E292E00E941A0A42
:1009B00083E292E00E941A0A20E041E160E184E0D3
:1009C00092E00F91EF90CF900C94640C84E092E051
:1009D0000E94090C8DE692E00E94470F83E792E0A7
:1009E0000E94470F89E792E00C94470F2F923F92A5
:1009F0004F925F926F927F928F929F92AF92BF922F
:100A0000CF92DF92EF92FF920F931F93CF93DF93DA
:100A1000CDB7DEB7AB970FB6F894DEBF0FBECDBF34
:100A20008EE0E3E2F1E0DE01119601900D928A95ED
:100A3000E1F788E0E1E3F1E0DE01579601900D92E5
:100A40008A95E1F786E0E9E3F1E0DE019596019011
:100A50000D928A95E1F788E0EFE3F1E0DE011F9661
:100A600001900D928A95E1F786E0E7E4F1E0DE017E
:100A70005F9601900D928A95E1F760E081E00E9417
:100A800080017E0187E1E80EF11C3E01EFE06E0E71
:100A9000711C9DE4292E92E0392E2E01FFE14F0EAC
:100AA000511C610110E000E0A12C20E2B22EF70100
:100AB00081917F010E94A20D4C01F30181913F01C0
:100AC0008BA7E1E0F0E0EC0FFD1FE80FF11D40E027
:100AD000608189E292E00E942908F601819191915A
:100AE0006F01881599050CF07AC0C5010BA402C0EE
:100AF000959587950A94E2F7080F191F6FEF89E221
:100B000092E00E94FE08E414F50489F681E090E08A
:100B10000E945D0D61E080E00E9480016E01F5E2BF
:100B2000CF0ED11C47013E018BE2680E711CE12CF7
:100B300080E2F82EF60181916F010E94A20D5C0106
:100B4000F40151904F01E1E0F0E0EC0FFD1FE50DE5
:100B5000F11D40E0608189E292E00E942908F101E4
:100B6000819191911F018A159B050CF03FC0C7012F
:100B700002C0959587955A94E2F7080F191F6FEFF9
:100B800089E292E00E94FE08C614D70499F681E03B
:100B900090E00E945D0D60E080E00E948001009581
:100BA00010951F7310934C0200934B02AB960FB637
:100BB000F894DEBF0FBECDBFDF91CF911F910F9193
:100BC000FF90EF90DF90CF90BF90AF909F908F906D
:100BD0007F906F905F904F903F902F90089563EDBE
:100BE00071E089E292E00E943F0F8DCF63ED71E0EA
:100BF00089E292E00E943F0FC7CF61E089E00E9446
:100C0000AC0E61E084E00E94AC0E70E060E090E029
:100C100080E00E9433010E94F60441E060E089E236
:100C200092E00E94290865ED71E089E292E00E945D
:100C30003F0F85E10E94DA0E892B11F40E948F018B
:100C400082E00E94DA0E892BC1F689E292E00E94CE
:100C500022086CE271E080E090E00E94240D60E0E8
:100C600089E00E94AC0E68EC70E080E090E00C94AB
:100C7000240D89E00E94DA0E892B09F058C080917A
:100C8000060190910701919581959109BC010E94FF
:100C9000330164E670E080E090E00E94240D70E093
:100CA00060E090E080E00E94330164EF71E080E05A
:100CB00090E00E94240D6AE67FEF88E790E00E94B2
:100CC000330162E271E080E090E00E94240D70E068
:100CD00060E090E080E00E9433016CE271E080E02F
:100CE00090E00E94240D66E970E080E590E00E94AB
:100CF000330160EB74E080E090E00E94240D66E92F
:100D000070E080E590E00E9433010E94F60480913B
:100D10004B0286FFF4CF70E060E088E790E00E942D
:100D2000330166E970E080E090E00C94240D0895B2
:100D30006F927F928F929F92AF92BF92CF92DF92EB
:100D4000EF92FF920F931F93CF93DF93EB015A0122
:100D500049019093070180930601CB01019720E0A0
:100D600030E2390102C0759467948A95E2F70E94D7
:100D7000F6040E9432030E943906CF30D10509F4EF
:100D80004FC064F4209711F1C130D10529F1809151
:100D90004B0290914C02862197215AC080914B02C0
:100DA00090914C02C031D10509F443C020910A0151
:100DB00030910B01C331D10554F728233923232B5C
:100DC000B1F220910C0130910D0140C080914B0295
:100DD00090914C02892B59F6A801B401C5010E94DB
:100DE0005A041092070110920601CEE1D0E00E9451
:100DF000F6040E9432030E9439062197C1F7F0924F
:100E00000701E0920601D0E0C0E0CC15DD0524F535
:100E10000E94F6040E9432030E9439062196F5CF03
:100E200080914B0290914C02209108013091090170
:100E3000C4CF209108013091090128233923232BA5
:100E400009F495CF20910A0130910B01822393235D
:100E5000892B09F48CCFC0CF60E084E00E94AC0EF7
:100E600061E089E00E94AC0E61E070E080E090E01B
:100E70000E94240D60E089E0DF91CF911F910F91D6
:100E8000FF90EF90DF90CF90BF90AF909F908F90AA
:100E90007F906F900C94AC0ECF92DF92EF92FF9206
:100EA0000F931F9382E3C82ED12C94E6E92EF12CE8
:100EB00004E610E026E930E046E950E061E070E049
:100EC00086E990E00E94980626E930E046E950E085
:100ED00061E070E086E990E00E9498061F910F9112
:100EE000FF90EF90DF90CF9008950E94FD050E9443
:100EF0004C070C94640190E080E008950895CF932E
:100F0000DF93EC0160E08E810E94AC0E81E090E006
:100F10000E945D0D61E08E810E94AC0E81E090E048
:100F20000E945D0D60E08E810E94AC0E84E690E030
:100F3000DF91CF910C945D0DCF92DF92EF92FF92F3
:100F40000F931F93CF93DF936C017C0187E0E80E32
:100F5000F11CD0E0C0E0062F10E0B8010C2E02C05A
:100F6000759567950A94E2F76170F70181917F01A9
:100F70000E94AC0E2196C430D10579F7C601DF91ED
:100F8000CF911F910F91FF90EF90DF90CF900C9435
:100F90007F07CF92DF92EF92FF920F931F93CF9331
:100FA000DF936C017C0187E0E80EF11CD0E0C0E02B
:100FB000062F10E0B8010C2E02C0759567950A94B3
:100FC000E2F76170F70181917F010E94AC0E2196DA
:100FD000C830D10579F7C601DF91CF911F910F91EC
:100FE000FF90EF90DF90CF900C947F071F93CF93EB
:100FF000DF93EC01162F642F8C810E94AC0E8D8143
:101000008F3F19F060E00E94AC0E8F85612F84FF46
:1010100006C0CE01DF91CF911F910C94C90770E0FB
:1010200084E0759567958A95E1F7CE010E949C074B
:10103000612FCE01DF91CF911F910C949C0740E06E
:101040000C94F60761E00E941F0880ED97E00C9475
:101050005D0D443008F043E0FC012389421710F095
:101060004FEF420FFC01E40FF11D2489620F60680D
:101070000C941F08FC016089262F2460208B6C6073
:101080000C941F080F931F93CF93DF93EC01423012
:1010900018F08F8588608F874B8B1C8A80E48D8B3E
:1010A0006E8B605C6F8B222329F0413019F48F85A1
:1010B00084608F8761E08C810E94700E8D818F3FEC
:1010C00019F061E00E94700E61E08E810E94700E46
:1010D0008E0198012C1B3D0B8F8584FD0DC084E093
:1010E00090E00F5F1F4F281739074CF461E0F801BB
:1010F00086810E94700EEDCF88E090E0F2CF80E50F
:1011000093EC0E945D0D60E08C810E94AC0E60E06B
:101110008E810E94AC0E8D818F3F19F060E00E949D
:10112000AC0E6F8564FD33C063E0CE010E949C0766
:1011300084E991E10E945D0D63E0CE010E949C076D
:1011400084E991E10E945D0D63E0CE010E949C075D
:1011500086E990E00E945D0D62E0CE010E949C074E
:101160006F856062CE010E941F0884E0888BCE01EB
:101170000E943A08CE010E94220882E0898B66E034
:10118000CE01DF91CF911F910F910C941F086062E7
:10119000CE010E941F0884E991E10E945D0D6F85D8
:1011A0006062CE010E941F0886E990E00E945D0DFA
:1011B0006F856062CE010E941F08D2CFCF92EF925E
:1011C0000F93FC01138212828AEE91E09183808357
:1011D00064838FEF8583468327830087E186C286F9
:1011E0001386148615861686178620E041E060E196
:1011F000CF010F91EF90CF900C94420841E00E94F4
:10120000F60781E090E00895CF92DF92EF92FF928F
:101210000F931F93CF93DF936B017A01EC01C058BA
:10122000DD4F28813CE0389F8001399F100D11244B
:1012300027FF24C0FB011182108288818F5F888381
:1012400088819801280F311D87FD3A95C9012091A9
:101250007F02F6012817190629F024F088818C30C6
:101260000CF43CC08081918104968035934C08F445
:1012700075C0F60180819181049672C088819801C1
:10128000280F311D87FD3A95C90120917F0228174B
:10129000190699F294F28881A801480F511D87FD23
:1012A0005A95FA01EE0FFF1FE40FF51FEE57FD4FA1
:1012B000808186FFC2CF8881F801E80FF11D87FD8C
:1012C000FA95CF01EE0FFF1FE80FF91FEE57FD4F04
:1012D000808160E08F730E94AC0EAFCF80819181DE
:1012E0002881A801420F511D27FD5A959A01FA0144
:1012F000EE0FFF1FE20FF31FEE57FD4F21813281EA
:10130000820F931FF7019183808388819801280FB2
:10131000311D87FD3A95F901EE0FFF1FE20FF31F14
:10132000EE57FD4F808186FF20C08881080F111D78
:1013300087FD1A95F801EE0FFF1FE00FF11FEE5722
:10134000FD4F808161E08F73DF91CF911F910F91ED
:10135000FF90EF90DF90CF900C94AC0E80E593EC73
:10136000F701918380838FEF8883DF91CF911F9165
:101370000F91FF90EF90DF90CF9008951F920F9202
:101380000FB60F9211240BB60F922F933F934F93EA
:101390005F936F937F938F939F93AF93BF93EF93DD
:1013A000FF9348E850E064E870E081E090E00E943C
:1013B0000409FF91EF91BF91AF919F918F917F9120
:1013C0006F915F914F913F912F910F900BBE0F90B6
:1013D0000FBE0F901F9018951F920F920FB60F928D
:1013E00011240BB60F922F933F934F935F936F93FC
:1013F0007F938F939F93AF93BF93EF93FF9348E9AE
:1014000050E064E970E090E080E00E940409FF9100
:10141000EF91BF91AF919F918F917F916F915F916C
:101420004F913F912F910F900BBE0F900FBE0F90D9
:101430001F901895FC0190917F02983198F481E0FB
:10144000890F80937F029083892F90E0FC01EE0F3B
:10145000FF1FE80FF91FEE57FD4F86EA9EE09283CB
:10146000818308958FEF80830895DF92EF92FF923A
:101470000F931F93CF93DF93EC01D62E7A0189014E
:101480008881883108F067C061E08D2D0E94700E60
:101490008881282F30E0F901EE0FFF1FE20FF31FC4
:1014A000EE57FD4F9D2D9F736081607C692B60839B
:1014B00020E232E02E193F0937FF02C02D5F3F4F77
:1014C0003595279535952795298320E639E0201B0A
:1014D000310B37FF02C02D5F3F4F3595279535956E
:1014E00027952A832CE0622F0E94DC0F829FB00197
:1014F000112430E020E0AB01420F531FFA01EE0F40
:10150000FF1FE40FF51FEE57FD4F908196FD16C0AB
:101510002F5F3F4F2C30310571F7813029F5109244
:10152000800082E0809381001092850010928400F8
:10153000B19A80916F00826080936F00E8818E2F56
:1015400090E0FC01EE0FFF1FE80FF91FEE57FD4F73
:101550008081806480838881DF91CF911F910F917A
:10156000FF90EF90DF9008958111E8CF10929000E6
:1015700082E080939100109295001092940088BBB5
:1015800080937100DBCF20E639E040E252E00C941A
:10159000350A20910C0330910D0328173907B9F44F
:1015A0009091CA028091CB02981789F0E091CA020B
:1015B000F0E0E453FD4F80812091CA0230E02F5FBC
:1015C0003F4F2F7333272093CA0290E008958FEF87
:1015D0009FEF0895EF92FF920F931F93CF93DF93A6
:1015E000DC015C96ED90FC905D97E114F10479F4D8
:1015F00081E090E013969C938E93129790E080E0A8
:10160000DF91CF911F910F91FF90EF900895519628
:10161000ED91FC91529750968C915097982F909500
:101620000FB75E962C915E97122F127021FD609578
:10163000F8942081112319F1282B2083E7012197A9
:10164000F1F728E0462F50E0308160FF1AC0382BB8
:101650003083E7012197F1F7BA017595679521501D
:1016600089F7112381F08081892380830FBF5C96E5
:101670008D919C910197F1F781E090E0C1CF2923F2
:10168000DCCF3923E5CF9081892BEFCF08952091CE
:101690000C0330910D032817390771F49091CA0299
:1016A0008091CB02981741F0E091CA02F0E0E45338
:1016B000FD4F808190E008958FEF9FEF0895209176
:1016C0000C0330910D032817390771F48091CB0278
:1016D0002091CA0290E0805C9F4F821B910960E4D8
:1016E00070E00E94E80F089590E080E00895E09196
:1016F0000C03F0910D03E817F90769F4A389B48985
:101700009C918589809589238C9310920D0310926A
:101710000C0381E0089580E008951F920F920FB6A8
:101720000F9211240BB60F922F933F934F935F9319
:101730006F937F938F939F93AF93BF93EF93FF9399
:10174000E0910C03F0910D03309749F0A685B78521
:101750008585968D91FF16C09C918923B1F4FF91E8
:10176000EF91BF91AF919F918F917F916F915F9119
:101770004F913F912F910F900BBE0F900FBE0F9086
:101780001F9018959C91892351F7A389B4899C9146
:101790008589809589238C93868997890197F1F7AC
:1017A000608D718DA685B785558538E020E0CB0129
:1017B0000197F1F7822F90E095958795282F4C910E
:1017C000452309F02068315091F7868D81FD2095E1
:1017D0008091CB0290E001968F7399273091CA02D5
:1017E000381799F0A091CB02B0E0A453BD4F2C93D1
:1017F0008093CB02828D938D0197F1F7A389B489F1
:101800008C919589892B8C93AACF868D8160868F48
:10181000F1CF26EF31E0FC01318320830C94770B6C
:101820001F93CF93DF93EC01162F6E8D6695617039
:1018300081E06827812F0E94AC0E61E0812F0E9419
:10184000700E812F110F990BFC01E455FF4FE491AD
:10185000E88BFC01E453FF4FE491F0E0EE0FFF1F33
:10186000EA50FF4F859194919A8B898BDF91CF91AC
:101870001F9108951F93CF93DF93EC01162F60E023
:10188000812F0E94700E8E8D81FD04C061E0812F3A
:101890000E94AC0E1C87812F110F990BFC01E4559F
:1018A000FF4FE491ED87FC01E453FF4FE491F0E03A
:1018B000EE0FFF1FE451FF4F859194919F878E8714
:1018C000DF91CF911F9108951F93CF93DF93EC0188
:1018D000162F1B821A8288EE93E0A0E0B0E08C8382
:1018E0009D83AE83BF8386EF91E0998388831F8AAF
:1018F0001E8A198E188E1B8E1A8E1D8E1C8E8E8D32
:101900008E7F20FB81F98E8F642FCE010E94100CF8
:10191000612FCE01DF91CF911F910C943A0C1F9251
:101920000F920FB60F9211244F935F936F937F9393
:101930008F939F9340911003509111036091120374
:101940007091130380910F0390910E03943019F559
:1019500010920E0390910E0390FD21C08A598D378D
:1019600028F08D574F5F5F4F6F4F7F4F80930F036E
:101970004093100350931103609312037093130369
:101980009F918F917F916F915F914F910F900FBEBB
:101990000F901F9018959F5F90930E03DBCF89598E
:1019A000DECFCF92DF92EF92FF926FB7F8948091E3
:1019B000100390911103A0911203B0911303509161
:1019C0000F0326B535B3432F417030FF04C041E00B
:1019D0002F3F09F440E06FBF6C017D0137E0CC0C74
:1019E000DD1CEE1CFF1C3A95D1F7C50ED11CE11C85
:1019F000F11CC81AD90AEA0AFB0A880F991FAA1F04
:101A0000BB1FC81AD90AEA0AFB0A63E0CC0CDD1C2A
:101A1000EE1CFF1C6A95D1F730E0A3E3B3E00E940F
:101A20000510672F782F892F99276C0D7D1D8E1D2E
:101A30009F1D442321F06D5C7C4F8F4F9F4FFF9083
:101A4000EF90DF90CF9008958F929F92AF92BF92C8
:101A5000CF92DF92EF92FF926B017C010E94D10C3A
:101A60004B015C01C114D104E104F104E9F00E94CE
:101A7000DB0F0E94D10C681979098A099B09683E1D
:101A800073408105910570F321E0C21AD108E10885
:101A9000F10888EE880E83E0981EA11CB11CC114C9
:101AA000D104E104F10429F7FF90EF90DF90CF908B
:101AB000BF90AF909F908F900895000000000000AD
:101AC000000000008230910550F09C01220F331F6E
:101AD000220F331F0797820F931F0197F1F7089585
:101AE000789484B5836084BD85B5836085BDEEE65A
:101AF000F0E0808181608083E1E8F0E082E0808333
:101B0000808181608083E0E8F0E080818160808373
:101B1000E1EBF0E0808184608083E0EBF0E08081A5
:101B200081608083E1E9F0E0808183608083E0E987
:101B3000F0E080818160808387E880937A00109252
:101B4000C1000895883020F0873108F487E188517A
:101B50002091120190E4299F900111248770822B1B
:101B600080937C0080917A00806480937A008091D9
:101B70007A0086FDFCCF80917800909179000895DD
:101B80001F93CF93DF93182FEB0161E00E94700E3B
:101B9000209739F460E0812FDF91CF911F910C9451
:101BA000AC0ECF3FD10511F461E0F5CFE12FF0E0AD
:101BB000E457FF4FE491E250EA3008F054C0F0E0FF
:101BC000EC51F24F0C94FC0FEE0DF60DFB0D050ED3
:101BD000330E330E0F0E170E1F0E290E84B58068BC
:101BE00084BDC7BDDF91CF911F91089584B58062F8
:101BF00084BDC8BDF7CF809180008068809380004D
:101C0000D0938900C0938800EDCF809180008062DE
:101C100080938000D0938B00C0938A00E3CF8091A3
:101C2000B00080688093B000C093B300DBCF809198
:101C3000B00080628093B000C093B400D3CF809195
:101C40009000806880939000D0939900C093980092
:101C5000C9CF80919000806280939000D0939B00C8
:101C6000C0939A00BFCFC038D1050CF09DCF92CF62
:101C700082508A3088F5E82FF0E0EF5BF14F0C944A
:101C8000FC0F690E6D0E4B0E510E6C0E6C0E550E48
:101C90005B0E5F0E650E809180008F7780938000D1
:101CA0000895809180008F7DF9CF8091B0008F776B
:101CB0008093B00008958091B0008F7DF9CF80911E
:101CC00090008F77809390000895809190008F7D91
:101CD000F9CF84B58F7784BD089584B58F7DFBCF10
:101CE000CF93DF9390E0FC01E455FF4F24918453A0
:101CF0009F4FFC0184918823C9F090E0880F991FC1
:101D0000FC01E050FF4FA591B491FC01EA50FF4F58
:101D1000C591D49161110DC09FB7F8948C91209515
:101D200082238C938881282328839FBFDF91CF91C2
:101D30000895623051F49FB7F8943C91822F8095BA
:101D400083238C93E8812E2BEFCF8FB7F894EC91FF
:101D50002E2B2C938FBFEACF1F93CF93DF93282F87
:101D600030E0F901E457FF4F8491F901E455FF4F4A
:101D7000D491F901E453FF4FC491CC23A9F0162F5D
:101D800081110E94380EEC2FF0E0EE0FFF1FEA5099
:101D9000FF4FA591B4918FB7F894EC91111108C041
:101DA000D095DE23DC938FBFDF91CF911F910895F3
:101DB000DE2BF8CFCF93DF93282F30E0F901E457E3
:101DC000FF4F8491F901E455FF4FD491F901E45399
:101DD000FF4FC491CC23A1F081110E94380EEC2F4B
:101DE000F0E0EE0FFF1FE451FF4FA591B491EC918D
:101DF000ED2381E090E009F480E0DF91CF91089538
:101E000080E090E0FACFAF92BF92CF92DF92EF9254
:101E1000FF920F931F93CF93DF936C017B018B0194
:101E2000040F151FEB015E01AE18BF08C017D107E4
:101E300059F06991D601ED91FC910190F081E02D6E
:101E4000C6010995892B79F7C501DF91CF911F91C3
:101E50000F91FF90EF90DF90CF90BF90AF900895DB
:101E6000FB0101900020E9F73197AF01461B570BAA
:101E7000DC01ED91FC910280F381E02D0994611564
:101E8000710511F00C94300F90E080E00895FC0192
:101E9000808191810C94C410CF93DF93EC018881F1
:101EA0009981009711F00E94C410198218821D8236
:101EB0001C821B821A82DF91CF9108950F931F938A
:101EC000CF93DF93EC018B016F5F7F4F8881998106
:101ED0000E944D11009751F0998388831B830A83D8
:101EE00081E0DF91CF911F910F91089580E0F9CFAC
:101EF000CF93DF93EC0188819981892B49F08A8106
:101F00009B818617970720F081E0DF91CF9108959C
:101F1000CE010E945E0F8823C1F38C819D81892BA5
:101F200099F7E881F9811082EFCFEF92FF920F933A
:101F30001F93CF93DF93EC017B018A01BA010E94CA
:101F4000780F81110BC0CE010E944C0FCE01DF91A2
:101F5000CF911F910F91FF90EF9008951D830C83F7
:101F6000B701888199810E943712F0CFFC0111825C
:101F7000108213821282158214826115710551F04C
:101F8000FB0101900020E9F73197AF01461B570B89
:101F90000C94950F089508950E94700D0E94CB0F28
:101FA0000E949904C0E0D0E00E9475072097E1F3F9
:101FB0000E940000F9CF0895991B79E004C0991F91
:101FC000961708F0961B881F7A95C9F78095089593
:101FD00097FB072E16F4009407D077FD09D00E94D6
:101FE000141007FC05D03EF4909581959F4F0895FD
:101FF000709561957F4F0895EE0FFF1F0024001C20
:102000000BBE0790F691E02D0994A29FB001B39FFB
:10201000C001A39F700D811D1124911DB29F700DF1
:10202000811D1124911D0895AA1BBB1B51E107C0FE
:10203000AA1FBB1FA617B70710F0A61BB70B881F58
:10204000991F5A95A9F780959095BC01CD010895E7
:102050000F931F93CF93DF938230910510F482E0AA
:1020600090E0E0911603F091170330E020E0B0E03B
:10207000A0E0309799F42115310509F44AC0281BD6
:10208000390B24303105D8F58A819B8161157105A2
:1020900089F1FB0193838283FE0111C0408151814C
:1020A0000281138148175907E0F04817590799F43E
:1020B000109761F012960C93129713961C93329618
:1020C000CF01DF91CF911F910F91089500931603D7
:1020D00010931703F4CF2115310551F04217530720
:1020E00038F0A901DB019A01BD01DF01F801C1CF80
:1020F000EF01F9CF9093170380931603CDCFFE0124
:10210000E20FF31F81939193225031093983288381
:10211000D7CF2091140330911503232B41F4209144
:102120000201309103013093150320931403209191
:102130000001309101012115310541F42DB73EB761
:102140004091040150910501241B350BE0911403CB
:10215000F0911503E217F307A0F42E1B3F0B28178D
:10216000390778F0AC014E5F5F4F2417350748F010
:102170004E0F5F1F50931503409314038193919367
:102180009FCFF0E0E0E09CCFCF93DF930097E9F0A2
:10219000FC01329713821282A0911603B0911703AB
:1021A000ED0130E020E01097A1F420813181820F11
:1021B000931F20911403309115032817390709F054
:1021C00061C0F0931503E0931403DF91CF9108955C
:1021D000EA01CE17DF07E8F54A815B819E014115D0
:1021E0005105B1F7E901FB83EA8349915991C40F85
:1021F000D51FEC17FD0761F4808191810296840F51
:10220000951FE90199838883828193819B838A83C7
:10221000F0E0E0E012968D919C9113970097B9F54C
:102220002D913C911197CD010296820F931F209121
:102230001403309115032817390739F6309751F5F3
:102240001092170310921603B0931503A093140372
:10225000BCCFD383C28340815181840F951FC8179F
:10226000D90761F44E5F5F4F88819981480F591FEC
:10227000518340838A819B81938382832115310519
:1022800009F0B0CFF0931703E09316039ECFFD0142
:10229000DC01C0CF13821282D7CF4F925F926F9230
:1022A0007F928F929F92AF92BF92CF92DF92EF92E6
:1022B000FF920F931F93CF93DF938C01009799F4B4
:1022C000CB01DF91CF911F910F91FF90EF90DF90A5
:1022D000CF90BF90AF909F908F907F906F905F90C6
:1022E0004F900C942810FC01E60FF71F9C01225020
:1022F0003109E217F30708F4AEC0D901CD91DC91A2
:102300001197C617D70720F1C530D10578F0CE0157
:1023100004978617970750F0C61BD70B2297C193D7
:10232000D1936D937C93CF010E94C410C801DF91BB
:10233000CF911F910F91FF90EF90DF90CF90BF90C2
:10234000AF909F908F907F906F905F904F90089587
:102350005B01AC1ABD0A4C018C0E9D1EA0911603A8
:10236000B0911703512C412CF12CE12C109731F531
:1023700080911403909115038815990509F05CC0AC
:102380004616570608F058C080910001909101014F
:10239000009741F48DB79EB740910401509105011B
:1023A000841B950BE817F90708F055C0F093150347
:1023B000E0931403F90171836083B8CF8D919C91F0
:1023C000119712966C90129713967C901397A815FC
:1023D000B90559F56C0142E0C40ED11CCA14DB04E6
:1023E00020F1AC014A195B09DA011296159780F0C9
:1023F0006282738251834083D9016D937C93E1148F
:10240000F10471F0D7011396FC93EE9312978ECFDF
:1024100022968C0F9D1FF90191838083F301EFCFEA
:10242000F0931703E093160381CF4816590608F47A
:102430002C017D01D3019ACFCB010E9428107C0191
:10244000009749F0AE01B8010E942E12C8010E9407
:10245000C41087016BCF10E000E068CFFB01DC0106
:1024600002C001900D9241505040D8F70895FB01F1
:10247000DC0101900D920020E1F70895F999FECF5B
:1024800092BD81BDF89A992780B50895262FF999B4
:10249000FECF1FBA92BD81BD20BD0FB6F894FA9A47
:1024A000F99A0FBE0196089510E0C6E8D0E004C086
:1024B000FE010E94FC0F2196C738D107C9F7F89496
:0224C000FFCF4C
:1024C2000000180380003200E001030000300A001F
:1024D20005000118191A1B1C1D1E1F1F1E1D1C1B87
:1024E2001A19180102030405060708090A0B0C0D44
:1024F2000E0001020304050607000102050607019A
:1025020003050607080A0C000204090B0D53636158
:102512006E6E696E6700446F6E6520202020202059
:1025220043616E63656C002E2020002E2E2E002E3D
:102532002E200043616E63656C656420202020209C
:1025420020202000536176696E6720446174612007
:10255200202020200058454C45524F4E2058202024
:1025620020726576300041726475696E6F204D6F1E
:102572006465202020200036393535353439333131
:102582003530363800383939383938393131303127
:102592003239005F0052756E20202020202020203A
:1025A200205363616E0000000000FE08030F7B07EA
:1025B2007E0700000000EA0A030F7B07460B5F0B51
:0425C200C90A470BF0
:00000001FF
